{
  "_format": "hh-sol-artifact-1",
  "contractName": "Azuki",
  "sourceName": "contracts/nftMint.sol",
  "abi": [
    {
      "inputs": [],
      "stateMutability": "nonpayable",
      "type": "constructor"
    },
    {
      "inputs": [],
      "name": "ApprovalCallerNotOwnerNorApproved",
      "type": "error"
    },
    {
      "inputs": [],
      "name": "ApprovalQueryForNonexistentToken",
      "type": "error"
    },
    {
      "inputs": [],
      "name": "ApprovalToCurrentOwner",
      "type": "error"
    },
    {
      "inputs": [],
      "name": "ApproveToCaller",
      "type": "error"
    },
    {
      "inputs": [],
      "name": "BalanceQueryForZeroAddress",
      "type": "error"
    },
    {
      "inputs": [],
      "name": "MintToZeroAddress",
      "type": "error"
    },
    {
      "inputs": [],
      "name": "MintZeroQuantity",
      "type": "error"
    },
    {
      "inputs": [],
      "name": "OwnerIndexOutOfBounds",
      "type": "error"
    },
    {
      "inputs": [],
      "name": "OwnerQueryForNonexistentToken",
      "type": "error"
    },
    {
      "inputs": [],
      "name": "TokenIndexOutOfBounds",
      "type": "error"
    },
    {
      "inputs": [],
      "name": "TransferCallerNotOwnerNorApproved",
      "type": "error"
    },
    {
      "inputs": [],
      "name": "TransferFromIncorrectOwner",
      "type": "error"
    },
    {
      "inputs": [],
      "name": "TransferToNonERC721ReceiverImplementer",
      "type": "error"
    },
    {
      "inputs": [],
      "name": "TransferToZeroAddress",
      "type": "error"
    },
    {
      "inputs": [],
      "name": "URIQueryForNonexistentToken",
      "type": "error"
    },
    {
      "anonymous": false,
      "inputs": [
        {
          "indexed": true,
          "internalType": "address",
          "name": "owner",
          "type": "address"
        },
        {
          "indexed": true,
          "internalType": "address",
          "name": "approved",
          "type": "address"
        },
        {
          "indexed": true,
          "internalType": "uint256",
          "name": "tokenId",
          "type": "uint256"
        }
      ],
      "name": "Approval",
      "type": "event"
    },
    {
      "anonymous": false,
      "inputs": [
        {
          "indexed": true,
          "internalType": "address",
          "name": "owner",
          "type": "address"
        },
        {
          "indexed": true,
          "internalType": "address",
          "name": "operator",
          "type": "address"
        },
        {
          "indexed": false,
          "internalType": "bool",
          "name": "approved",
          "type": "bool"
        }
      ],
      "name": "ApprovalForAll",
      "type": "event"
    },
    {
      "anonymous": false,
      "inputs": [
        {
          "indexed": true,
          "internalType": "address",
          "name": "from",
          "type": "address"
        },
        {
          "indexed": true,
          "internalType": "address",
          "name": "to",
          "type": "address"
        },
        {
          "indexed": true,
          "internalType": "uint256",
          "name": "tokenId",
          "type": "uint256"
        }
      ],
      "name": "Transfer",
      "type": "event"
    },
    {
      "inputs": [
        {
          "internalType": "address",
          "name": "to",
          "type": "address"
        },
        {
          "internalType": "uint256",
          "name": "tokenId",
          "type": "uint256"
        }
      ],
      "name": "approve",
      "outputs": [],
      "stateMutability": "nonpayable",
      "type": "function"
    },
    {
      "inputs": [
        {
          "internalType": "address",
          "name": "owner",
          "type": "address"
        }
      ],
      "name": "balanceOf",
      "outputs": [
        {
          "internalType": "uint256",
          "name": "",
          "type": "uint256"
        }
      ],
      "stateMutability": "view",
      "type": "function"
    },
    {
      "inputs": [
        {
          "internalType": "uint256",
          "name": "tokenId",
          "type": "uint256"
        }
      ],
      "name": "getApproved",
      "outputs": [
        {
          "internalType": "address",
          "name": "",
          "type": "address"
        }
      ],
      "stateMutability": "view",
      "type": "function"
    },
    {
      "inputs": [
        {
          "internalType": "address",
          "name": "owner",
          "type": "address"
        },
        {
          "internalType": "address",
          "name": "operator",
          "type": "address"
        }
      ],
      "name": "isApprovedForAll",
      "outputs": [
        {
          "internalType": "bool",
          "name": "",
          "type": "bool"
        }
      ],
      "stateMutability": "view",
      "type": "function"
    },
    {
      "inputs": [
        {
          "internalType": "uint256",
          "name": "quantity",
          "type": "uint256"
        }
      ],
      "name": "mint",
      "outputs": [],
      "stateMutability": "payable",
      "type": "function"
    },
    {
      "inputs": [],
      "name": "name",
      "outputs": [
        {
          "internalType": "string",
          "name": "",
          "type": "string"
        }
      ],
      "stateMutability": "view",
      "type": "function"
    },
    {
      "inputs": [
        {
          "internalType": "uint256",
          "name": "tokenId",
          "type": "uint256"
        }
      ],
      "name": "ownerOf",
      "outputs": [
        {
          "internalType": "address",
          "name": "",
          "type": "address"
        }
      ],
      "stateMutability": "view",
      "type": "function"
    },
    {
      "inputs": [
        {
          "internalType": "address",
          "name": "from",
          "type": "address"
        },
        {
          "internalType": "address",
          "name": "to",
          "type": "address"
        },
        {
          "internalType": "uint256",
          "name": "tokenId",
          "type": "uint256"
        }
      ],
      "name": "safeTransferFrom",
      "outputs": [],
      "stateMutability": "nonpayable",
      "type": "function"
    },
    {
      "inputs": [
        {
          "internalType": "address",
          "name": "from",
          "type": "address"
        },
        {
          "internalType": "address",
          "name": "to",
          "type": "address"
        },
        {
          "internalType": "uint256",
          "name": "tokenId",
          "type": "uint256"
        },
        {
          "internalType": "bytes",
          "name": "_data",
          "type": "bytes"
        }
      ],
      "name": "safeTransferFrom",
      "outputs": [],
      "stateMutability": "nonpayable",
      "type": "function"
    },
    {
      "inputs": [
        {
          "internalType": "address",
          "name": "operator",
          "type": "address"
        },
        {
          "internalType": "bool",
          "name": "approved",
          "type": "bool"
        }
      ],
      "name": "setApprovalForAll",
      "outputs": [],
      "stateMutability": "nonpayable",
      "type": "function"
    },
    {
      "inputs": [
        {
          "internalType": "bytes4",
          "name": "interfaceId",
          "type": "bytes4"
        }
      ],
      "name": "supportsInterface",
      "outputs": [
        {
          "internalType": "bool",
          "name": "",
          "type": "bool"
        }
      ],
      "stateMutability": "view",
      "type": "function"
    },
    {
      "inputs": [],
      "name": "symbol",
      "outputs": [
        {
          "internalType": "string",
          "name": "",
          "type": "string"
        }
      ],
      "stateMutability": "view",
      "type": "function"
    },
    {
      "inputs": [
        {
          "internalType": "uint256",
          "name": "index",
          "type": "uint256"
        }
      ],
      "name": "tokenByIndex",
      "outputs": [
        {
          "internalType": "uint256",
          "name": "",
          "type": "uint256"
        }
      ],
      "stateMutability": "view",
      "type": "function"
    },
    {
      "inputs": [
        {
          "internalType": "address",
          "name": "owner",
          "type": "address"
        },
        {
          "internalType": "uint256",
          "name": "index",
          "type": "uint256"
        }
      ],
      "name": "tokenOfOwnerByIndex",
      "outputs": [
        {
          "internalType": "uint256",
          "name": "",
          "type": "uint256"
        }
      ],
      "stateMutability": "view",
      "type": "function"
    },
    {
      "inputs": [
        {
          "internalType": "uint256",
          "name": "tokenId",
          "type": "uint256"
        }
      ],
      "name": "tokenURI",
      "outputs": [
        {
          "internalType": "string",
          "name": "",
          "type": "string"
        }
      ],
      "stateMutability": "view",
      "type": "function"
    },
    {
      "inputs": [],
      "name": "totalSupply",
      "outputs": [
        {
          "internalType": "uint256",
          "name": "",
          "type": "uint256"
        }
      ],
      "stateMutability": "view",
      "type": "function"
    },
    {
      "inputs": [
        {
          "internalType": "address",
          "name": "from",
          "type": "address"
        },
        {
          "internalType": "address",
          "name": "to",
          "type": "address"
        },
        {
          "internalType": "uint256",
          "name": "tokenId",
          "type": "uint256"
        }
      ],
      "name": "transferFrom",
      "outputs": [],
      "stateMutability": "nonpayable",
      "type": "function"
    }
  ],
  "bytecode": "0x60806040523480156200001157600080fd5b506040518060400160405280600581526020017f417a756b690000000000000000000000000000000000000000000000000000008152506040518060400160405280600581526020017f415a554b49000000000000000000000000000000000000000000000000000000815250816001908051906020019062000096929190620000b8565b508060029080519060200190620000af929190620000b8565b505050620001cd565b828054620000c69062000168565b90600052602060002090601f016020900481019282620000ea576000855562000136565b82601f106200010557805160ff191683800117855562000136565b8280016001018555821562000136579182015b828111156200013557825182559160200191906001019062000118565b5b50905062000145919062000149565b5090565b5b80821115620001645760008160009055506001016200014a565b5090565b600060028204905060018216806200018157607f821691505b602082108114156200019857620001976200019e565b5b50919050565b7f4e487b7100000000000000000000000000000000000000000000000000000000600052602260045260246000fd5b6129ff80620001dd6000396000f3fe6080604052600436106100fe5760003560e01c80634f6ccce711610095578063a0712d6811610064578063a0712d681461036d578063a22cb46514610389578063b88d4fde146103b2578063c87b56dd146103db578063e985e9c514610418576100fe565b80634f6ccce71461028b5780636352211e146102c857806370a082311461030557806395d89b4114610342576100fe565b806318160ddd116100d157806318160ddd146101d157806323b872dd146101fc5780632f745c591461022557806342842e0e14610262576100fe565b806301ffc9a71461010357806306fdde0314610140578063081812fc1461016b578063095ea7b3146101a8575b600080fd5b34801561010f57600080fd5b5061012a6004803603810190610125919061238b565b610455565b6040516101379190612561565b60405180910390f35b34801561014c57600080fd5b5061015561059f565b604051610162919061257c565b60405180910390f35b34801561017757600080fd5b50610192600480360381019061018d91906123dd565b610631565b60405161019f91906124fa565b60405180910390f35b3480156101b457600080fd5b506101cf60048036038101906101ca919061234f565b6106ad565b005b3480156101dd57600080fd5b506101e66107b8565b6040516101f3919061259e565b60405180910390f35b34801561020857600080fd5b50610223600480360381019061021e9190612249565b61080d565b005b34801561023157600080fd5b5061024c6004803603810190610247919061234f565b61081d565b604051610259919061259e565b60405180910390f35b34801561026e57600080fd5b5061028960048036038101906102849190612249565b610a24565b005b34801561029757600080fd5b506102b260048036038101906102ad91906123dd565b610a44565b6040516102bf919061259e565b60405180910390f35b3480156102d457600080fd5b506102ef60048036038101906102ea91906123dd565b610bb5565b6040516102fc91906124fa565b60405180910390f35b34801561031157600080fd5b5061032c600480360381019061032791906121e4565b610bcb565b604051610339919061259e565b60405180910390f35b34801561034e57600080fd5b50610357610c9b565b604051610364919061257c565b60405180910390f35b610387600480360381019061038291906123dd565b610d2d565b005b34801561039557600080fd5b506103b060048036038101906103ab9190612313565b610d3a565b005b3480156103be57600080fd5b506103d960048036038101906103d49190612298565b610eb2565b005b3480156103e757600080fd5b5061040260048036038101906103fd91906123dd565b610f05565b60405161040f919061257c565b60405180910390f35b34801561042457600080fd5b5061043f600480360381019061043a919061220d565b610fa4565b60405161044c9190612561565b60405180910390f35b60007f80ac58cd000000000000000000000000000000000000000000000000000000007bffffffffffffffffffffffffffffffffffffffffffffffffffffffff1916827bffffffffffffffffffffffffffffffffffffffffffffffffffffffff1916148061052057507f5b5e139f000000000000000000000000000000000000000000000000000000007bffffffffffffffffffffffffffffffffffffffffffffffffffffffff1916827bffffffffffffffffffffffffffffffffffffffffffffffffffffffff1916145b8061058857507f780e9d63000000000000000000000000000000000000000000000000000000007bffffffffffffffffffffffffffffffffffffffffffffffffffffffff1916827bffffffffffffffffffffffffffffffffffffffffffffffffffffffff1916145b80610598575061059782611038565b5b9050919050565b6060600180546105ae906127c3565b80601f01602080910402602001604051908101604052809291908181526020018280546105da906127c3565b80156106275780601f106105fc57610100808354040283529160200191610627565b820191906000526020600020905b81548152906001019060200180831161060a57829003601f168201915b5050505050905090565b600061063c826110a2565b610672576040517fcf4700e400000000000000000000000000000000000000000000000000000000815260040160405180910390fd5b6005600083815260200190815260200160002060009054906101000a900473ffffffffffffffffffffffffffffffffffffffff169050919050565b60006106b882610bb5565b90508073ffffffffffffffffffffffffffffffffffffffff168373ffffffffffffffffffffffffffffffffffffffff161415610720576040517f943f7b8c00000000000000000000000000000000000000000000000000000000815260040160405180910390fd5b8073ffffffffffffffffffffffffffffffffffffffff1661073f61110a565b73ffffffffffffffffffffffffffffffffffffffff1614158015610771575061076f8161076a61110a565b610fa4565b155b156107a8576040517fcfb3b94200000000000000000000000000000000000000000000000000000000815260040160405180910390fd5b6107b3838383611112565b505050565b60008060109054906101000a90046fffffffffffffffffffffffffffffffff1660008054906101000a90046fffffffffffffffffffffffffffffffff16036fffffffffffffffffffffffffffffffff16905090565b6108188383836111c4565b505050565b600061082883610bcb565b8210610860576040517f0ddac30e00000000000000000000000000000000000000000000000000000000815260040160405180910390fd5b60008060009054906101000a90046fffffffffffffffffffffffffffffffff166fffffffffffffffffffffffffffffffff16905060008060005b83811015610a18576000600360008381526020019081526020016000206040518060600160405290816000820160009054906101000a900473ffffffffffffffffffffffffffffffffffffffff1673ffffffffffffffffffffffffffffffffffffffff1673ffffffffffffffffffffffffffffffffffffffff1681526020016000820160149054906101000a900467ffffffffffffffff1667ffffffffffffffff1667ffffffffffffffff16815260200160008201601c9054906101000a900460ff16151515158152505090508060400151156109775750610a0b565b600073ffffffffffffffffffffffffffffffffffffffff16816000015173ffffffffffffffffffffffffffffffffffffffff16146109b757806000015192505b8773ffffffffffffffffffffffffffffffffffffffff168373ffffffffffffffffffffffffffffffffffffffff161415610a095786841415610a00578195505050505050610a1e565b83806001019450505b505b808060010191505061089a565b50600080fd5b92915050565b610a3f83838360405180602001604052806000815250610eb2565b505050565b60008060008054906101000a90046fffffffffffffffffffffffffffffffff166fffffffffffffffffffffffffffffffff1690506000805b82811015610b7d576000600360008381526020019081526020016000206040518060600160405290816000820160009054906101000a900473ffffffffffffffffffffffffffffffffffffffff1673ffffffffffffffffffffffffffffffffffffffff1673ffffffffffffffffffffffffffffffffffffffff1681526020016000820160149054906101000a900467ffffffffffffffff1667ffffffffffffffff1667ffffffffffffffff16815260200160008201601c9054906101000a900460ff16151515158152505090508060400151610b6f5785831415610b665781945050505050610bb0565b82806001019350505b508080600101915050610a7c565b506040517fa723001c00000000000000000000000000000000000000000000000000000000815260040160405180910390fd5b919050565b6000610bc0826116e1565b600001519050919050565b60008073ffffffffffffffffffffffffffffffffffffffff168273ffffffffffffffffffffffffffffffffffffffff161415610c33576040517f8f4eb60400000000000000000000000000000000000000000000000000000000815260040160405180910390fd5b600460008373ffffffffffffffffffffffffffffffffffffffff1673ffffffffffffffffffffffffffffffffffffffff16815260200190815260200160002060000160009054906101000a900467ffffffffffffffff1667ffffffffffffffff169050919050565b606060028054610caa906127c3565b80601f0160208091040260200160405190810160405280929190818152602001828054610cd6906127c3565b8015610d235780601f10610cf857610100808354040283529160200191610d23565b820191906000526020600020905b815481529060010190602001808311610d0657829003601f168201915b5050505050905090565b610d373382611989565b50565b610d4261110a565b73ffffffffffffffffffffffffffffffffffffffff168273ffffffffffffffffffffffffffffffffffffffff161415610da7576040517fb06307db00000000000000000000000000000000000000000000000000000000815260040160405180910390fd5b8060066000610db461110a565b73ffffffffffffffffffffffffffffffffffffffff1673ffffffffffffffffffffffffffffffffffffffff16815260200190815260200160002060008473ffffffffffffffffffffffffffffffffffffffff1673ffffffffffffffffffffffffffffffffffffffff16815260200190815260200160002060006101000a81548160ff0219169083151502179055508173ffffffffffffffffffffffffffffffffffffffff16610e6161110a565b73ffffffffffffffffffffffffffffffffffffffff167f17307eab39ab6107e8899845ad3d59bd9653f200f220920489ca2b5937696c3183604051610ea69190612561565b60405180910390a35050565b610ebd8484846111c4565b610ec9848484846119a7565b610eff576040517fd1a57ed600000000000000000000000000000000000000000000000000000000815260040160405180910390fd5b50505050565b6060610f10826110a2565b610f46576040517fa14c4b5000000000000000000000000000000000000000000000000000000000815260040160405180910390fd5b6000610f50611b35565b9050600081511415610f715760405180602001604052806000815250610f9c565b80610f7b84611b4c565b604051602001610f8c9291906124d6565b6040516020818303038152906040525b915050919050565b6000600660008473ffffffffffffffffffffffffffffffffffffffff1673ffffffffffffffffffffffffffffffffffffffff16815260200190815260200160002060008373ffffffffffffffffffffffffffffffffffffffff1673ffffffffffffffffffffffffffffffffffffffff16815260200190815260200160002060009054906101000a900460ff16905092915050565b60007f01ffc9a7000000000000000000000000000000000000000000000000000000007bffffffffffffffffffffffffffffffffffffffffffffffffffffffff1916827bffffffffffffffffffffffffffffffffffffffffffffffffffffffff1916149050919050565b60008060009054906101000a90046fffffffffffffffffffffffffffffffff166fffffffffffffffffffffffffffffffff1682108015611103575060036000838152602001908152602001600020600001601c9054906101000a900460ff16155b9050919050565b600033905090565b826005600084815260200190815260200160002060006101000a81548173ffffffffffffffffffffffffffffffffffffffff021916908373ffffffffffffffffffffffffffffffffffffffff160217905550818373ffffffffffffffffffffffffffffffffffffffff168273ffffffffffffffffffffffffffffffffffffffff167f8c5be1e5ebec7d5bd14f71427d1e84f3dd0314c0f7b2291e5b200ac8c7c3b92560405160405180910390a4505050565b60006111cf826116e1565b90506000816000015173ffffffffffffffffffffffffffffffffffffffff166111f661110a565b73ffffffffffffffffffffffffffffffffffffffff1614806112295750611228826000015161122361110a565b610fa4565b5b8061126e575061123761110a565b73ffffffffffffffffffffffffffffffffffffffff1661125684610631565b73ffffffffffffffffffffffffffffffffffffffff16145b9050806112a7576040517f59c896be00000000000000000000000000000000000000000000000000000000815260040160405180910390fd5b8473ffffffffffffffffffffffffffffffffffffffff16826000015173ffffffffffffffffffffffffffffffffffffffff1614611310576040517fa114810000000000000000000000000000000000000000000000000000000000815260040160405180910390fd5b600073ffffffffffffffffffffffffffffffffffffffff168473ffffffffffffffffffffffffffffffffffffffff161415611377576040517fea553b3400000000000000000000000000000000000000000000000000000000815260040160405180910390fd5b6113848585856001611cf9565b6113946000848460000151611112565b6001600460008773ffffffffffffffffffffffffffffffffffffffff1673ffffffffffffffffffffffffffffffffffffffff16815260200190815260200160002060000160008282829054906101000a900467ffffffffffffffff160392506101000a81548167ffffffffffffffff021916908367ffffffffffffffff1602179055506001600460008673ffffffffffffffffffffffffffffffffffffffff1673ffffffffffffffffffffffffffffffffffffffff16815260200190815260200160002060000160008282829054906101000a900467ffffffffffffffff160192506101000a81548167ffffffffffffffff021916908367ffffffffffffffff160217905550836003600085815260200190815260200160002060000160006101000a81548173ffffffffffffffffffffffffffffffffffffffff021916908373ffffffffffffffffffffffffffffffffffffffff160217905550426003600085815260200190815260200160002060000160146101000a81548167ffffffffffffffff021916908367ffffffffffffffff1602179055506000600184019050600073ffffffffffffffffffffffffffffffffffffffff166003600083815260200190815260200160002060000160009054906101000a900473ffffffffffffffffffffffffffffffffffffffff1673ffffffffffffffffffffffffffffffffffffffff1614156116715760008054906101000a90046fffffffffffffffffffffffffffffffff166fffffffffffffffffffffffffffffffff168110156116705782600001516003600083815260200190815260200160002060000160006101000a81548173ffffffffffffffffffffffffffffffffffffffff021916908373ffffffffffffffffffffffffffffffffffffffff16021790555082602001516003600083815260200190815260200160002060000160146101000a81548167ffffffffffffffff021916908367ffffffffffffffff1602179055505b5b50828473ffffffffffffffffffffffffffffffffffffffff168673ffffffffffffffffffffffffffffffffffffffff167fddf252ad1be2c89b69c2b068fc378daa952ba7f163c4a11628f55a4df523b3ef60405160405180910390a46116da8585856001611cff565b5050505050565b6116e96120d0565b600082905060008054906101000a90046fffffffffffffffffffffffffffffffff166fffffffffffffffffffffffffffffffff16811015611952576000600360008381526020019081526020016000206040518060600160405290816000820160009054906101000a900473ffffffffffffffffffffffffffffffffffffffff1673ffffffffffffffffffffffffffffffffffffffff1673ffffffffffffffffffffffffffffffffffffffff1681526020016000820160149054906101000a900467ffffffffffffffff1667ffffffffffffffff1667ffffffffffffffff16815260200160008201601c9054906101000a900460ff1615151515815250509050806040015161195057600073ffffffffffffffffffffffffffffffffffffffff16816000015173ffffffffffffffffffffffffffffffffffffffff1614611834578092505050611984565b5b60011561194f57818060019003925050600360008381526020019081526020016000206040518060600160405290816000820160009054906101000a900473ffffffffffffffffffffffffffffffffffffffff1673ffffffffffffffffffffffffffffffffffffffff1673ffffffffffffffffffffffffffffffffffffffff1681526020016000820160149054906101000a900467ffffffffffffffff1667ffffffffffffffff1667ffffffffffffffff16815260200160008201601c9054906101000a900460ff1615151515815250509050600073ffffffffffffffffffffffffffffffffffffffff16816000015173ffffffffffffffffffffffffffffffffffffffff161461194a578092505050611984565b611835565b5b505b6040517fdf2d9b4200000000000000000000000000000000000000000000000000000000815260040160405180910390fd5b919050565b6119a3828260405180602001604052806000815250611d05565b5050565b60006119c88473ffffffffffffffffffffffffffffffffffffffff16611d17565b15611b28578373ffffffffffffffffffffffffffffffffffffffff1663150b7a026119f161110a565b8786866040518563ffffffff1660e01b8152600401611a139493929190612515565b602060405180830381600087803b158015611a2d57600080fd5b505af1925050508015611a5e57506040513d601f19601f82011682018060405250810190611a5b91906123b4565b60015b611ad8573d8060008114611a8e576040519150601f19603f3d011682016040523d82523d6000602084013e611a93565b606091505b50600081511415611ad0576040517fd1a57ed600000000000000000000000000000000000000000000000000000000815260040160405180910390fd5b805181602001fd5b63150b7a0260e01b7bffffffffffffffffffffffffffffffffffffffffffffffffffffffff1916817bffffffffffffffffffffffffffffffffffffffffffffffffffffffff191614915050611b2d565b600190505b949350505050565b606060405180602001604052806000815250905090565b60606000821415611b94576040518060400160405280600181526020017f30000000000000000000000000000000000000000000000000000000000000008152509050611cf4565b600082905060005b60008214611bc6578080611baf90612826565b915050600a82611bbf91906126a8565b9150611b9c565b60008167ffffffffffffffff811115611c08577f4e487b7100000000000000000000000000000000000000000000000000000000600052604160045260246000fd5b6040519080825280601f01601f191660200182016040528015611c3a5781602001600182028036833780820191505090505b5090505b60008514611ced57600182611c5391906126d9565b9150600a85611c62919061286f565b6030611c6e9190612652565b60f81b818381518110611caa577f4e487b7100000000000000000000000000000000000000000000000000000000600052603260045260246000fd5b60200101907effffffffffffffffffffffffffffffffffffffffffffffffffffffffffffff1916908160001a905350600a85611ce691906126a8565b9450611c3e565b8093505050505b919050565b50505050565b50505050565b611d128383836001611d3a565b505050565b6000808273ffffffffffffffffffffffffffffffffffffffff163b119050919050565b60008060009054906101000a90046fffffffffffffffffffffffffffffffff166fffffffffffffffffffffffffffffffff169050600073ffffffffffffffffffffffffffffffffffffffff168573ffffffffffffffffffffffffffffffffffffffff161415611dd5576040517f2e07630000000000000000000000000000000000000000000000000000000000815260040160405180910390fd5b6000841415611e10576040517fb562e8dd00000000000000000000000000000000000000000000000000000000815260040160405180910390fd5b611e1d6000868387611cf9565b83600460008773ffffffffffffffffffffffffffffffffffffffff1673ffffffffffffffffffffffffffffffffffffffff16815260200190815260200160002060000160008282829054906101000a900467ffffffffffffffff160192506101000a81548167ffffffffffffffff021916908367ffffffffffffffff16021790555083600460008773ffffffffffffffffffffffffffffffffffffffff1673ffffffffffffffffffffffffffffffffffffffff16815260200190815260200160002060000160088282829054906101000a900467ffffffffffffffff160192506101000a81548167ffffffffffffffff021916908367ffffffffffffffff160217905550846003600083815260200190815260200160002060000160006101000a81548173ffffffffffffffffffffffffffffffffffffffff021916908373ffffffffffffffffffffffffffffffffffffffff160217905550426003600083815260200190815260200160002060000160146101000a81548167ffffffffffffffff021916908367ffffffffffffffff160217905550600081905060005b8581101561208257818773ffffffffffffffffffffffffffffffffffffffff16600073ffffffffffffffffffffffffffffffffffffffff167fddf252ad1be2c89b69c2b068fc378daa952ba7f163c4a11628f55a4df523b3ef60405160405180910390a4838015612036575061203460008884886119a7565b155b1561206d576040517fd1a57ed600000000000000000000000000000000000000000000000000000000815260040160405180910390fd5b81806001019250508080600101915050611fbb565b50806000806101000a8154816fffffffffffffffffffffffffffffffff02191690836fffffffffffffffffffffffffffffffff160217905550506120c96000868387611cff565b5050505050565b6040518060600160405280600073ffffffffffffffffffffffffffffffffffffffff168152602001600067ffffffffffffffff1681526020016000151581525090565b6000612126612121846125de565b6125b9565b90508281526020810184848401111561213e57600080fd5b612149848285612781565b509392505050565b6000813590506121608161296d565b92915050565b60008135905061217581612984565b92915050565b60008135905061218a8161299b565b92915050565b60008151905061219f8161299b565b92915050565b600082601f8301126121b657600080fd5b81356121c6848260208601612113565b91505092915050565b6000813590506121de816129b2565b92915050565b6000602082840312156121f657600080fd5b600061220484828501612151565b91505092915050565b6000806040838503121561222057600080fd5b600061222e85828601612151565b925050602061223f85828601612151565b9150509250929050565b60008060006060848603121561225e57600080fd5b600061226c86828701612151565b935050602061227d86828701612151565b925050604061228e868287016121cf565b9150509250925092565b600080600080608085870312156122ae57600080fd5b60006122bc87828801612151565b94505060206122cd87828801612151565b93505060406122de878288016121cf565b925050606085013567ffffffffffffffff8111156122fb57600080fd5b612307878288016121a5565b91505092959194509250565b6000806040838503121561232657600080fd5b600061233485828601612151565b925050602061234585828601612166565b9150509250929050565b6000806040838503121561236257600080fd5b600061237085828601612151565b9250506020612381858286016121cf565b9150509250929050565b60006020828403121561239d57600080fd5b60006123ab8482850161217b565b91505092915050565b6000602082840312156123c657600080fd5b60006123d484828501612190565b91505092915050565b6000602082840312156123ef57600080fd5b60006123fd848285016121cf565b91505092915050565b61240f8161270d565b82525050565b61241e8161271f565b82525050565b600061242f8261260f565b6124398185612625565b9350612449818560208601612790565b6124528161295c565b840191505092915050565b60006124688261261a565b6124728185612636565b9350612482818560208601612790565b61248b8161295c565b840191505092915050565b60006124a18261261a565b6124ab8185612647565b93506124bb818560208601612790565b80840191505092915050565b6124d081612777565b82525050565b60006124e28285612496565b91506124ee8284612496565b91508190509392505050565b600060208201905061250f6000830184612406565b92915050565b600060808201905061252a6000830187612406565b6125376020830186612406565b61254460408301856124c7565b81810360608301526125568184612424565b905095945050505050565b60006020820190506125766000830184612415565b92915050565b60006020820190508181036000830152612596818461245d565b905092915050565b60006020820190506125b360008301846124c7565b92915050565b60006125c36125d4565b90506125cf82826127f5565b919050565b6000604051905090565b600067ffffffffffffffff8211156125f9576125f861292d565b5b6126028261295c565b9050602081019050919050565b600081519050919050565b600081519050919050565b600082825260208201905092915050565b600082825260208201905092915050565b600081905092915050565b600061265d82612777565b915061266883612777565b9250827fffffffffffffffffffffffffffffffffffffffffffffffffffffffffffffffff0382111561269d5761269c6128a0565b5b828201905092915050565b60006126b382612777565b91506126be83612777565b9250826126ce576126cd6128cf565b5b828204905092915050565b60006126e482612777565b91506126ef83612777565b925082821015612702576127016128a0565b5b828203905092915050565b600061271882612757565b9050919050565b60008115159050919050565b60007fffffffff0000000000000000000000000000000000000000000000000000000082169050919050565b600073ffffffffffffffffffffffffffffffffffffffff82169050919050565b6000819050919050565b82818337600083830152505050565b60005b838110156127ae578082015181840152602081019050612793565b838111156127bd576000848401525b50505050565b600060028204905060018216806127db57607f821691505b602082108114156127ef576127ee6128fe565b5b50919050565b6127fe8261295c565b810181811067ffffffffffffffff8211171561281d5761281c61292d565b5b80604052505050565b600061283182612777565b91507fffffffffffffffffffffffffffffffffffffffffffffffffffffffffffffffff821415612864576128636128a0565b5b600182019050919050565b600061287a82612777565b915061288583612777565b925082612895576128946128cf565b5b828206905092915050565b7f4e487b7100000000000000000000000000000000000000000000000000000000600052601160045260246000fd5b7f4e487b7100000000000000000000000000000000000000000000000000000000600052601260045260246000fd5b7f4e487b7100000000000000000000000000000000000000000000000000000000600052602260045260246000fd5b7f4e487b7100000000000000000000000000000000000000000000000000000000600052604160045260246000fd5b6000601f19601f8301169050919050565b6129768161270d565b811461298157600080fd5b50565b61298d8161271f565b811461299857600080fd5b50565b6129a48161272b565b81146129af57600080fd5b50565b6129bb81612777565b81146129c657600080fd5b5056fea264697066735822122000dd9789a66aa89d1e5becd70682ebc8bc68e1549d26f7a817d2a9a2c6e6677064736f6c63430008040033",
  "linkReferences": {},
  "deployedLinkReferences": {}
}